:100000000C9446000C947A000C947A000C947A00BC
:100010000C947A000C947A000C947A000C947A0078
:100020000C947A000C947A000C947A000C947A0068
:100030000C947A000C947A000C947A000C947A0058
:100040000C947A000C947A000C947A000C947A0048
:100050000C947A000C947A000C947A000C947A0038
:100060000C947A000C947A000C947A000C947A0028
:100070000C947A000C947A000C947A000C947A0018
:100080000C947A000C947A000C947A0011241FBE10
:10009000CFEFD0E1DEBFCDBF0E9452000C946100D3
:0400A000F894FFCF02
:1000A4000E946C0081E40E9476002FEF89E698E1BB
:0E00B400215080409040E1F700C00000F3CFE3
:1000C200EC010E947F000E947E00CE010E9480000F
:0600D200CE010E947C003B
:1000D8001092900083E389B986E08093950088E0C8
:0400E8008AB9089534
:0800EC005D9BFECF8CB9089565
:0400F4000C94000068
:0400F8000E94500012
:0200FC00089565
:0200FE00089563
:02010000089560
:00000001FF
