:100000000C9446000C9479000C9479000C947900BF
:100010000C9479000C9479000C9479000C9479007C
:100020000C9479000C9479000C9479000C9479006C
:100030000C9479000C9479000C9479000C9479005C
:100040000C9479000C9479000C9479000C9479004C
:100050000C9479000C9479000C9479000C9479003C
:100060000C9479000C9479000C9479000C9479002C
:100070000C9479000C9479000C9479000C9479001C
:100080000C9479000C9479000C94790011241FBE13
:10009000CFEFD0E1DEBFCDBF0E9452000C946E00C6
:0400A000F894FFCF02
:1000A400BC9A18BA13BE83B7886483BF83B78062CF
:1000B40083BF83B7826083BF80E881BF2FE38DE075
:1000C40093E0215080409040E1F700C0000081B7E8
:0800D400865F81BF81B7F2CF06
:1000DC00EC010E947E000E947D00CE010E947F00F8
:0600EC00CE010E947B0022
:0400F2000C9400006A
:0400F6000E94500014
:0200FA00089567
:0200FC00089565
:0200FE00089563
:00000001FF
