:100000000C9446000C9498000C9498000C94980062
:100010000C9498000C9498000C9498000C94980000
:100020000C9498000C9498000C9498000C949800F0
:100030000C9498000C9498000C9498000C949800E0
:100040000C9498000C9498000C9498000C949800D0
:100050000C9498000C9498000C9498000C949800C0
:100060000C9498000C9498000C9498000C949800B0
:100070000C9498000C9498000C9498000C949800A0
:100080000C9498000C9498000C94980011241FBEB6
:10009000CFEFD0E1DEBFCDBF0E9452000C948D00A7
:0400A000F894FFCF02
:1000A4008FEF8ABB87BB84BB28E181E090E0A0E0AE
:1000B400B0E085BB492F5A2F6B2F772748BBAD0182
:1000C400662777274BBBEFE4F3EC3197F1F700C0D9
:1000D4000000880F991FAA1FBB1F215051F728E168
:1000E40080E090E0A0E8B0E085BB492F5A2F6B2F49
:1000F400772748BBAD01662777274BBBEFE4F3ECCA
:100104003197F1F700C00000B695A79597958795AC
:06011400215051F7C9CF94
:10011A00EC010E949D000E949C00CE010E949E005C
:06012A00CE010E949A00C4
:040130000C9400002B
:040134000E945000D5
:02013800089528
:02013A00089526
:02013C00089524
:00000001FF
