:100000000C9446000C94BF000C94BF000C94BF00ED
:100010000C94BF000C94BF000C94BF000C94BF0064
:100020000C94BF000C94BF000C94BF000C94BF0054
:100030000C94BF000C94BF000C94BF000C94BF0044
:100040000C94BF000C94BF000C94BF000C94BF0034
:100050000C94BF000C94BF000C94BF000C94BF0024
:100060000C94BF000C94BF000C94BF000C94BF0014
:100070000C94BF000C94BF000C94BF000C94BF0004
:100080000C94BF000C94BF000C94BF0011241FBE41
:10009000CFEFD0E1DEBFCDBF0E9452000C94B40080
:0400A000F894FFCF02
:1000A400BC9A18BAC0E8DFEF0E949300C1BF92E384
:1000B400E7EAF1E63197F1F700C0000081B78B5F02
:1000C40081BF81B79150A1F70E949E00C1BF92E306
:1000D400E7EAF1E63197F1F700C0000081B78B5FE2
:1000E40081BF81B79150A1F70E949300D1BFFFE374
:1000F40022E48FE0F15020408040E1F700C000008E
:100104000E94A900C1BF92E3E7EAF1E63197F1F753
:1001140000C0000081B78B5F81BF81B79150A1F708
:02012400C3CF47
:1001260013BE83B7886483BF83B7806283BF83B7F8
:06013600816083BF089503
:10013C0013BE83B7886483BF83B7806383BF83B7E1
:06014C00816083BF0895ED
:1001520013BE83B7806483BF83B7806383BF83B7D3
:06016200816083BF0895D7
:10016800EC010E94C4000E94C300CE010E94C50099
:06017800CE010E94C1004F
:04017E000C940000DD
:040182000E94500087
:020186000895DA
:020188000895D8
:02018A000895D6
:00000001FF
