:100000000C9446000C9461010C9461010C94610104
:100010000C9461010C9461010C9461010C946101D8
:100020000C9461010C9461010C9461010C946101C8
:100030000C9461010C9461010C9461010C946101B8
:100040000C9461010C9461010C9461010C946101A8
:100050000C9461010C9461010C9461010C94610198
:100060000C9461010C9461010C9461010C94610188
:100070000C9461010C9461010C9461010C94610178
:100080000C9461010C9461010C94610111241FBE58
:10009000CFEFD0E1DEBFCDBF0E9452000C94330100
:0400A000F894FFCF02
:1000A4008FEF84BB85BBE1E6F0E080818E7F8083A7
:1000B4000E9458010E943E010E944801C0E0D0E025
:1000C40000E010E0312C212C0F2EF0E9AF2EBB24E0
:1000D400B394F02D0F2EF8ECEF2EF12CF02D0F2E03
:1000E400F0E2CF2EF3E0DF2EF02D0F2EF8E58F2E69
:1000F400F2E09F2EF02D0F2EF8EE6F2EF3E07F2E00
:10010400F02D0E9452012C01C801C29748165906CD
:1001140028F08C599F4F8415950590F585E648166F
:100124005104C8F08DE2481681E05806B0F085EF1E
:10013400481681E05806A0F08DEB481682E0580678
:1001440098F085E8481683E0580698F00F2EF5E0FD
:100154003F2EF02D11C0322C0FC0332433940CC029
:100164006894332431F808C00F2EF3E03F2EF02DAD
:1001740003C06894332432F8832D0E945D01820108
:100184002196C436D10528F0832D0E945D01C0E07C
:10019400D0E082E03816B9F0831530F0332069F0EE
:1001A40081E0381669F01BC084E0381691F03816E7
:1001B40068F085E0381681F012C0FBBCEABC11C0BF
:1001C400FBBCEABC0EC0BBBCAABC0BC09BBC8ABCBB
:1001D40008C0DBBCCABC05C07BBC6ABC02C0FBBC9B
:0A01E400EABC832D0E94F7008CCFC7
:1001EE00CF93DF93833089F028F4882359F082303F
:1001FE0031F014C0843061F0853069F00FC0CAEF61
:10020E00D0E00EC08FEF85BB14C0C7EAD0E008C0A7
:10021E00CDE7D0E005C0C4E6D0E002C0C4EFD1E027
:10022E0015BACE010E9423018FEF85BBCE010E942D
:08023E002301DF91CF91089527
:10024600009769F020E030E0EFECF7E03197F1F746
:1002560000C000002F5F3F4F82179307A9F708954C
:10026600EC010E9466010E946501CE010E946701B1
:06027600CE010E946301AD
:10027C0082E88FBD8AE18EBD88EE93E097BD86BD86
:04028C00BD9A08957A
:100290001092900083E389B988E08AB986E0809360
:0402A0009500089528
:0C02A400369A3699FECF84B195B10895CA
:0A02B00080E487B986E886B9089556
:0802BA005D9BFECF8CB9089595
:0402C2000C94000098
:0402C6000E94500042
:0202CA00089595
:0202CC00089593
:0202CE00089591
:00000001FF
