:100000000C944A000C94BD000C94BD000C94BD00EF
:100010000C94BD000C94BD000C94BD000C94BD006C
:100020000C94BD000C94BD000C94BD000C94BD005C
:100030000C94BD000C94BD000C94BD000C94BD004C
:100040000C94BD000C94BD000C94BD000C94BD003C
:100050000C94BD000C94BD000C94BD000C94BD002C
:100060000C94BD000C94BD000C94BD000C94BD001C
:100070000C94BD000C94BD000C94BD000C94BD000C
:100080000C94BD000C94BD000C94BD000100011047
:100090000001880011241FBECFEFD0E1DEBFCDBF2D
:1000A000ECE8F0E040E019C0B791A79137912791B3
:1000B000079107FD0EC097918791EF01F92FE82F67
:1000C0000BBF07900D92A217B307D9F7FE011BBE15
:1000D00004C01D92A217B307E1F7E339F40721F733
:0C00E0000E9476000C94B200F894FFCF50
:1000EC00CF93DF93CDB7DEB760970FB6F894DEBF32
:1000FC000FBECDBF8FEF84BB80E1E0E0F1E0DE010D
:10010C00119601900D928A95E1F720E09FEF889867
:10011C0080991EC0E7E8F3E13197F1F700C00000C9
:10012C008099F5CFE1E0F0E0EC0FFD1FE20FF11D3F
:10013C00808185BB2F5F203109F420E0FFE936E890
:10014C0041E0F15030404040E1F700C00000DFCF0B
:08015C0094BB85B385BBDBCF2A
:10016400EC010E94C2000E94C100CE010E94C300A3
:06017400CE010E94BF0055
:04017A000C940000E1
:04017E000E94740067
:020182000895DE
:020184000895DC
:020186000895DA
:100188003F065B4F666D7D077F6F777C395E7971BF
:00000001FF
