:100000000C9449000C94F8000C94F8000C94F8003F
:100010000C94F8000C94F8000C94F8000C94F80080
:100020000C94F8000C94F8000C94F8000C94F80070
:100030000C94F8000C94F8000C94F8000C94F80060
:100040000C94F8000C94F8000C9475000C94F800D3
:100050000C94F8000C94F8000C94F8000C94F80040
:100060000C94F8000C94F8000C94F8000C94F80030
:100070000C94F8000C94F8000C94F8000C94F80020
:100080000C94F8000C94F8000C94F80001000102A4
:10009000800011241FBECFEFD0E1DEBFCDBFECE862
:1000A000F0E040E019C0B791A791379127910791EF
:1000B00007FD0EC097918791EF01F92FE82F0BBF35
:1000C00007900D92A217B307D9F7FE011BBE04C01B
:1000D0001D92A217B307E1F7E139F40721F70E9457
:0A00E000B0000C94E900F894FFCF83
:1000EA001F920F920FB60F9211240BB60F922F93F5
:1000FA003F934F935F936F937F938F939F93AF93A6
:10010A00BF93EF93FF938CB1813421F491E09093E4
:10011A0000010CC090910001992341F09FEC980FC7
:10012A00933020F490930101109200010E94F40090
:10013A00FF91EF91BF91AF919F918F917F916F91B5
:10014A005F914F913F912F910F900BBE0F900FBE71
:06015A000F901F901895A4
:100160000E94DE00A09AA89891E085B3892785BBFC
:1001700080910101813071F018F08230A9F0F5CF43
:100180002FEF34E38CE0215030408040E1F700C095
:100190000000EBCF2FE73AE186E02150304080406D
:1001A000E1F700C00000E1CF2FEF30E782E02150FF
:0C01B00030408040E1F700C00000D7CFD5
:1001BC001092900083E389B986E08093950088E9DA
:0601CC008AB97894089541
:1001D200EC010E94FD000E94FC00CE010E94FE0084
:0601E200CE010E94FA00AC
:0801E8005D9BFECF8CB9089568
:0401F0000C9400006B
:0401F4000E947300F2
:0201F800089568
:0201FA00089566
:0201FC00089564
:00000001FF
