:100000000C9446000C94A0000C94A0000C94A0004A
:100010000C94A0000C94A0000C94A0000C94A000E0
:100020000C94A0000C94A0000C94A0000C94A000D0
:100030000C94A0000C94A0000C94A0000C94A000C0
:100040000C94A0000C94A0000C9452000C94A000FE
:100050000C94A0000C94A0000C94A0000C94A000A0
:100060000C94A0000C94A0000C94A0000C94A00090
:100070000C94A0000C94A0000C94A0000C94A00080
:100080000C94A0000C94A0000C94A00011241FBE9E
:10009000CFEFD0E1DEBFCDBF0E9497000C948C0063
:0400A000F894FFCF02
:1000A4001F920F920FB60F9211240BB60F922F933B
:1000B4003F934F935F936F937F938F939F93AF93EC
:1000C400BF93EF93FF938CB1813421F425B391E076
:1000D400922795BB0E949C00FF91EF91BF91AF9135
:1000E4009F918F917F916F915F914F913F912F914C
:0E00F4000F900BBE0F900FBE0F901F9018952F
:100102001092900083E389B986E08093950088E994
:060112008AB978940895FB
:10011800EC010E94A5000E94A400CE010E94A60046
:06012800CE010E94A200BE
:0A012E000E948100A09AA898FFCF5C
:080138005D9BFECF8CB9089518
:040140000C9400001B
:040144000E945000C5
:02014800089518
:02014A00089516
:02014C00089514
:00000001FF
