:100000000C9449000C94AE000C94AE000C94AE001D
:100010000C94AE000C94AE000C94AE000C94AE00A8
:100020000C94AE000C94AE000C94AE000C94AE0098
:100030000C94AE000C94AE000C94AE000C94AE0088
:100040000C94AE000C94AE000C94AE000C94AE0078
:100050000C94AE000C94AE000C94AE000C94AE0068
:100060000C94AE000C94AE000C94AE000C94AE0058
:100070000C94AE000C94AE000C94AE000C94AE0048
:100080000C94AE000C94AE000C94AE000100010183
:10009000800011241FBECFEFD0E1DEBFCDBFECE862
:1000A000F0E040E019C0B791A791379127910791EF
:1000B00007FD0EC097918791EF01F92FE82F0BBF35
:1000C00007900D92A217B307D9F7FE011BBE04C01B
:1000D0001D92A217B307E1F7E139F40721F70E9457
:0A00E00075000C94A300F894FFCF04
:1000EA008FEF8ABB91E09BBB10920001EFE4F3EC27
:1000FA003197F1F700C000008BB3880F8BBB80915A
:10010A0000018F5F80930001873080F314C0FFE9FC
:10011A0026E831E0F15020403040E1F700C000000D
:10012A008BB386958BBB809100018F5F8093000112
:0C013A00873068F3D8CF10920001E9CFA5
:10014600EC010E94B3000E94B200CE010E94B400EE
:06015600CE010E94B00082
:04015C000C940000FF
:040160000E94730086
:020164000895FC
:020166000895FA
:020168000895F8
:00000001FF
