:100000000C9449000C94C0000C94C0000C94C000E7
:100010000C94C0000C94C0000C94C0000C94C00060
:100020000C94C0000C94C0000C94C0000C94C00050
:100030000C94C0000C94C0000C94C0000C94C00040
:100040000C94C0000C94C0000C94C0000C94C00030
:100050000C94C0000C94C0000C94C0000C94C00020
:100060000C94C0000C94C0000C94C0000C94C00010
:100070000C94C0000C94C0000C94C0000C94C00000
:100080000C94C0000C94C0000C94C000010001024C
:10009000800011241FBECFEFD0E1DEBFCDBFECE862
:1000A000F0E040E019C0B791A791379127910791EF
:1000B00007FD0EC097918791EF01F92FE82F0BBF35
:1000C00007900D92A217B307D9F7FE011BBE04C01B
:1000D0001D92A217B307E1F7E139F40721F70E9457
:0A00E00075000C94B500F894FFCFF2
:1000EA008FEF8ABB21E025BB2BBB28BB10920101F5
:1000FA00109200018FE493EC0197F1F700C0000021
:10010A0085B3880F85BB88B318BA8BB31BBA8091A5
:10011A0000019091010101969093010180930001E1
:10012A00479740F318C09FE936E881E09150304084
:10013A008040E1F700C000008BB386958BBB8091AD
:10014A0000019091010101969093010180930001B1
:10015A00479748F3C8CF1092010110920001E3CFEC
:10016A00EC010E94C5000E94C400CE010E94C60094
:06017A00CE010E94C2004C
:040180000C940000DB
:040184000E94730062
:020188000895D8
:02018A000895D6
:02018C000895D4
:00000001FF
