:100000000C9446000C94E0000C94E0000C94E0008A
:100010000C94E0000C94E0000C94E0000C94E000E0
:100020000C94E0000C94E0000C94E0000C94E000D0
:100030000C94E0000C94E0000C94E0000C94E000C0
:100040000C94E0000C94E0000C94E0000C94E000B0
:100050000C94E0000C94E0000C94E0000C94E000A0
:100060000C94E0000C94E0000C94E0000C94E00090
:100070000C94E0000C94E0000C94E0000C94E00080
:100080000C94E0000C94E0000C94E00011241FBEDE
:10009000CFEFD0E1DEBFCDBF0E9452000C94C7006D
:0400A000F894FFCF02
:1000A4000E94D2008A98929A91E0C0E003E010E0A6
:1000B40001C09D2F80B382FBDD27D0F982FD12C0E1
:1000C400913081F48C2F90E00196B8010E949F003A
:1000D400C82F2FE788E391E0215080409040E1F75A
:1000E40000C0000081E40E94DC0081E38C0F0E94C8
:1000F400DC00C13071F018F0C230A9F0DACF2FEF74
:1001040089E698E1215080409040E1F700C000006A
:10011400D0CF2FEF84E39CE0215080409040E1F762
:1001240000C00000C6CF2FEF81EE94E02150804044
:0A0134009040E1F700C00000BCCFCE
:10013E0097FB072E16F4009407D077FD09D00E9486
:10014E00B30007FC05D03EF4909581959F4F08951E
:08015E00709561957F4F089533
:10016600AA1BBB1B51E107C0AA1FBB1FA617B707D7
:1001760010F0A61BB70B881F991F5A95A9F78095F3
:080186009095BC01CD01089524
:10018E00EC010E94E5000E94E400CE010E94E60010
:06019E00CE010E94E20008
:1001A4001092900083E389B986E08093950088E0FB
:0401B4008AB9089567
:0801B8005D9BFECF8CB9089598
:0401C0000C9400009B
:0401C4000E94500045
:0201C800089598
:0201CA00089596
:0201CC00089594
:00000001FF
