:100000000C9446000C94C5000C94C5000C94C500DB
:100010000C94C5000C94C5000C94C5000C94C5004C
:100020000C94C5000C94C5000C94C5000C94C5003C
:100030000C94C5000C94C5000C94C5000C94C5002C
:100040000C94C5000C94C5000C94C5000C94C5001C
:100050000C94C5000C94C5000C94C5000C94C5000C
:100060000C94C5000C94C5000C94C5000C94C500FC
:100070000C94C5000C94C5000C94C5000C94C500EC
:100080000C94C5000C94C5000C94C50011241FBE2F
:10009000CFEFD0E1DEBFCDBF0E947E000C94A70061
:0400A000F894FFCF02
:1000A400CF93DF93833089F028F4882359F082308A
:1000B40031F014C0843061F0853069F00FC0CAEFAC
:1000C400D0E00EC08FEF88BB14C0C7EAD0E008C0F0
:1000D400CDE7D0E005C0C4E6D0E002C0C4EFD1E073
:1000E40018BACE010E9497008FEF88BBCE010E9400
:0800F4009700DF91CF91089500
:1000FC00CF93DF930F92CDB7DEB78FEF87BB88BB63
:10010C000E94B20011E0CE0101960E94BC0088232F
:10011C0021F08981863008F4182F812F0E9452001B
:02012C00F2CF10
:10012E00009769F020E030E0EFECF7E03197F1F75F
:10013E0000C000002F5F3F4F82179307A9F7089565
:10014E00EC010E94CA000E94C900CE010E94CB00A1
:06015E00CE010E94C70063
:100164001092900083E389B980E18AB986E0809394
:040174009500089555
:100178005F9B05C02CB1FC01208381E0089580E0DD
:020188000895D8
:04018A000C940000D1
:04018E000E9450007B
:020192000895CE
:020194000895CC
:020196000895CA
:00000001FF
