:100000000C9446000C94E5000C94E5000C94E5007B
:100010000C94E5000C94E5000C94E5000C94E500CC
:100020000C94E5000C94E5000C94E5000C94E500BC
:100030000C94E5000C94E5000C94E5000C94E500AC
:100040000C94E5000C94E5000C94E5000C94E5009C
:100050000C94E5000C94E5000C94E5000C94E5008C
:100060000C94E5000C94E5000C94E5000C94E5007C
:100070000C94E5000C94E5000C94E5000C94E5006C
:100080000C94E5000C94E5000C94E50011241FBECF
:10009000CFEFD0E1DEBFCDBF0E9452000C94D00064
:0400A000F894FFCF02
:1000A4000E94C2000E94DB0087B38F6187BBCBE054
:1000B400D1E00F2EF6E3AF2EF5E0BF2EF02D0F2E7C
:1000C400FBE4CF2EF7E0DF2EF02D0F2EF0E6EF2E1F
:1000D400F9E0FF2EF02D00E213E00E94B1009FEF43
:1000E400980F9530B0F58330C9F028F4813041F091
:1000F400823069F028C08430C1F08530E9F023C033
:10010400DBBDCABD88B3807E816088BBE6CF1BBDE2
:100114000ABD88B3807E826088BBDFCFBBBCAABC2B
:1001240088B3807E846088BBD8CFDBBCCABC88B36C
:10013400807E886088BBD1CFFBBCEABC88B3807E5C
:10014400806188BBCACFDBBDCABD88B3807E88BB53
:0E015400C4CFDBBDCABD88B3807E88BBBECFE2
:100162000CC09BB1892F807194FF03C08CB180E0D9
:1001720008955B9B02C09CB108955F9BF2CF8CB146
:020182000895DE
:1001840082E88FBD89E18EBD8AE69AE097BD86BD7F
:0C0194008BE091E09BBD8ABDBD9A0895F0
:1001A000EC010E94EA000E94E900CE010E94EB00EF
:0601B000CE010E94E700F1
:1001B6001092900083E389B988E18AB986E080933A
:0401C6009500089503
:0401CA000C94000091
:0401CE000E9450003B
:0201D20008958E
:0201D40008958C
:0201D60008958A
:00000001FF
