:100000000C9446000C9441010C9441010C94410164
:100010000C9441010C9441010C9441010C94410158
:100020000C9441010C9441010C9441010C94410148
:100030000C9441010C9441010C9441010C94410138
:100040000C9441010C9441010C9441010C94410128
:100050000C9441010C9441010C9441010C94410118
:100060000C9441010C9441010C9441010C94410108
:100070000C9441010C9441010C9441010C944101F8
:100080000C9441010C9441010C94410111241FBEB8
:10009000CFEFD0E1DEBFCDBF0E9452000C94210112
:0400A000F894FFCF02
:1000A4008FEF84BB85BBE1E6F0E080818E7F8083A7
:1000B4000E943C010E942C01C0E0D0E010E00F2E11
:1000C400F8EEAF2EF3E0BF2EF02D0F2EF5E02F2E1D
:1000D400F02D0F2EF0E2CF2EF3E0DF2EF02D6894FA
:1000E400332432F80F2EF8E5EF2EF2E0FF2EF02D38
:1000F4000F2EF3E04F2EF02D0F2EF0E98F2E9924C2
:100104009394F02D6894552451F801E0612C0E94D9
:1001140036019E01225331098217930728F02C5986
:100124003F4F28173907A8F48536910508F18D3219
:1001340021E0920728F1853F31E0930748F18D3B98
:1001440022E0920750F1853833E0930758F1EC012F
:100154002EC01230E1F028F4112349F0113059F582
:100164000EC0143001F1D0F0153009F124C0CE01D5
:1001740028EC30E03BBD2ABDEC01162D20C0CE0199
:1001840028EC30E03BBD2ABDEC01102F18C0CE0195
:100194009BBC8ABCEC01152D12C0EC01FBBCEABC73
:1001A400142D0DC0EC01DBBCCABC132D08C0BBBCB4
:1001B400AABC122D04C088EC90E09BBD8ABD812F9F
:0601C4000E94E500A4CF3B
:1001CA00CF93DF93833089F028F4882359F0823063
:1001DA0031F014C0843061F0853069F00FC0CAEF85
:1001EA00D0E00EC08FEF85BB14C0C7EAD0E008C0CC
:1001FA00CDE7D0E005C0C4E6D0E002C0C4EFD1E04C
:10020A0015BACE010E9411018FEF85BBCE010E9463
:08021A001101DF91CF9108955D
:10022200009769F020E030E0EFECF7E03197F1F76A
:1002320000C000002F5F3F4F82179307A9F7089570
:10024200EC010E9446010E944501CE010E94470135
:06025200CE010E944301F1
:1002580082E88FBD8AE18EBD88EE93E097BD86BDAA
:04026800BD9A08959E
:0C026C00369A3699FECF84B195B1089502
:0A02780080E487B986E886B908958E
:040282000C940000D8
:040286000E94500082
:02028A000895D5
:02028C000895D3
:02028E000895D1
:00000001FF
