:100000000C944A000C9495000C9495000C94950067
:100010000C9495000C9495000C9495000C9495000C
:100020000C9495000C9495000C9495000C949500FC
:100030000C9495000C9495000C9495000C949500EC
:100040000C9495000C9495000C9495000C949500DC
:100050000C9495000C9495000C9495000C949500CC
:100060000C9495000C9495000C9495000C949500BC
:100070000C9495000C9495000C9495000C949500AC
:100080000C9495000C9495000C94950001000104CB
:100090000001380011241FBECFEFD0E1DEBFCDBF7D
:1000A000ECE8F0E040E019C0B791A79137912791B3
:1000B000079107FD0EC097918791EF01F92FE82F67
:1000C0000BBF07900D92A217B307D9F7FE011BBE15
:1000D00004C01D92A217B307E1F7E339F40721F733
:0C00E0000E9476000C948A00F894FFCF78
:1000EC0085B7806885BF8091000180930011809155
:1000FC000101809301118091020180930211809182
:08010C00030180930311FFCFF2
:10011400EC010E949A000E949900CE010E949B006B
:06012400CE010E949700CD
:04012A000C94000031
:04012E000E947400B7
:0201320008952E
:0201340008952C
:0201360008952A
:04013800555555556F
:00000001FF
