:100000000C9446000C946E000C946E000C946E00E0
:100010000C946E000C946E000C946E000C946E00A8
:100020000C946E000C946E000C946E000C946E0098
:100030000C946E000C946E000C946E000C946E0088
:100040000C946E000C946E000C946E000C946E0078
:100050000C946E000C946E000C946E000C946E0068
:100060000C946E000C946E000C946E000C946E0058
:100070000C946E000C946E000C946E000C946E0048
:100080000C946E000C946E000C946E0011241FBE34
:10009000CFEFD0E1DEBFCDBF0E946B000C946000BB
:0400A000F894FFCF02
:1000A40082E88FBD89E18EBD8AE69AE097BD86BD60
:0C00B40080E699E09BBD8ABDBD9A0895CE
:1000C000EC010E9473000E947200CE010E94740035
:0600D000CE010E94700049
:0600D6000E945200FFCF62
:0400DC000C94000080
:0400E0000E9450002A
:0200E40008957D
:0200E60008957B
:0200E800089579
:00000001FF
