:100000000C9446000C94F9000C94F9000C94F9003F
:100010000C94F9000C94F9000C94F9000C94F9007C
:100020000C94F9000C94F9000C94F9000C94F9006C
:100030000C94F9000C94F9000C94F9000C94F9005C
:100040000C94F9000C94F9000C94F9000C94F9004C
:100050000C94F9000C94F9000C94F9000C94F9003C
:100060000C94F9000C94F9000C94F9000C94F9002C
:100070000C94F9000C94F9000C94F9000C94F9001C
:100080000C94F9000C94F9000C94F90011241FBE93
:10009000CFEFD0E1DEBFCDBF0E9452000C94D20062
:0400A000F894FFCF02
:1000A4000E94C4000E94F0000E94DD0087B38F61AB
:1000B40087BB0F2EF0E6AF2EF9E0BF2EF02D0F2EEA
:1000C400F5E05F2EF02D0F2EFBE4CF2EF7E0DF2EB0
:1000D400F02D6894662462F80F2EF6E3EF2EF5E017
:1000E400FF2EF02D0F2EF3E07F2EF02D00E213E013
:1000F4006894882481F8CBE0D1E0992493940E94F9
:10010400E7008D3C910540F4DBBDCABD88B3807E19
:10011400816088BB892D2AC08A3921E0920740F486
:100124001BBD0ABD88B3807E826088BB882D1EC03B
:10013400873622E0920740F4FBBCEABC88B3807E99
:10014400846088BB872D12C08433934040F4DBBCA9
:10015400CABC88B3807E886088BB862D07C0BBBCC0
:10016400AABC88B3807E806188BB852D0E94F5007F
:100174008FEF94E32CE0815090402040E1F700C0E1
:040184000000BDCFEB
:1001880082E88FBD89E18EBD8AE69AE097BD86BD7B
:0C0198008BE091E09BBD8ABDBD9A0895EC
:1001A400EC010E94FE000E94FD00CE010E94FF00AF
:0601B400CE010E94FB00D9
:1001BA001092900083E389B988E18AB986E0809336
:0401CA0095000895FF
:1001CE0087B1807F87B9369A3699FECF84B195B1C3
:0201DE00089582
:0A01E00080E487B987E886B9089526
:0801EA005D9BFECF8CB9089566
:0401F2000C94000069
:0401F6000E94500013
:0201FA00089566
:0201FC00089564
:0201FE00089562
:00000001FF
